{
  "abi": [
    {
      "type": "constructor",
      "inputs": [
        {
          "name": "_usdc",
          "type": "address",
          "internalType": "address"
        },
        {
          "name": "_upToken",
          "type": "address",
          "internalType": "address"
        },
        {
          "name": "_downToken",
          "type": "address",
          "internalType": "address"
        },
        {
          "name": "_owner",
          "type": "address",
          "internalType": "address"
        }
      ],
      "stateMutability": "nonpayable"
    },
    {
      "type": "function",
      "name": "ammContract",
      "inputs": [],
      "outputs": [
        {
          "name": "",
          "type": "address",
          "internalType": "address"
        }
      ],
      "stateMutability": "view"
    },
    {
      "type": "function",
      "name": "burnTokens",
      "inputs": [
        {
          "name": "upAmount",
          "type": "uint256",
          "internalType": "uint256"
        },
        {
          "name": "downAmount",
          "type": "uint256",
          "internalType": "uint256"
        }
      ],
      "outputs": [],
      "stateMutability": "nonpayable"
    },
    {
      "type": "function",
      "name": "downToken",
      "inputs": [],
      "outputs": [
        {
          "name": "",
          "type": "address",
          "internalType": "contract MockERC20"
        }
      ],
      "stateMutability": "view"
    },
    {
      "type": "function",
      "name": "emergencyWithdraw",
      "inputs": [
        {
          "name": "token",
          "type": "address",
          "internalType": "contract IERC20"
        },
        {
          "name": "amount",
          "type": "uint256",
          "internalType": "uint256"
        },
        {
          "name": "to",
          "type": "address",
          "internalType": "address"
        }
      ],
      "outputs": [],
      "stateMutability": "nonpayable"
    },
    {
      "type": "function",
      "name": "getDOWNBalance",
      "inputs": [],
      "outputs": [
        {
          "name": "",
          "type": "uint256",
          "internalType": "uint256"
        }
      ],
      "stateMutability": "view"
    },
    {
      "type": "function",
      "name": "getUPBalance",
      "inputs": [],
      "outputs": [
        {
          "name": "",
          "type": "uint256",
          "internalType": "uint256"
        }
      ],
      "stateMutability": "view"
    },
    {
      "type": "function",
      "name": "getUSDCBalance",
      "inputs": [],
      "outputs": [
        {
          "name": "",
          "type": "uint256",
          "internalType": "uint256"
        }
      ],
      "stateMutability": "view"
    },
    {
      "type": "function",
      "name": "mintTokens",
      "inputs": [
        {
          "name": "usdcAmount",
          "type": "uint256",
          "internalType": "uint256"
        }
      ],
      "outputs": [],
      "stateMutability": "nonpayable"
    },
    {
      "type": "function",
      "name": "owner",
      "inputs": [],
      "outputs": [
        {
          "name": "",
          "type": "address",
          "internalType": "address"
        }
      ],
      "stateMutability": "view"
    },
    {
      "type": "function",
      "name": "renounceOwnership",
      "inputs": [],
      "outputs": [],
      "stateMutability": "nonpayable"
    },
    {
      "type": "function",
      "name": "setAMMContract",
      "inputs": [
        {
          "name": "_ammContract",
          "type": "address",
          "internalType": "address"
        }
      ],
      "outputs": [],
      "stateMutability": "nonpayable"
    },
    {
      "type": "function",
      "name": "transferOwnership",
      "inputs": [
        {
          "name": "newOwner",
          "type": "address",
          "internalType": "address"
        }
      ],
      "outputs": [],
      "stateMutability": "nonpayable"
    },
    {
      "type": "function",
      "name": "upToken",
      "inputs": [],
      "outputs": [
        {
          "name": "",
          "type": "address",
          "internalType": "contract MockERC20"
        }
      ],
      "stateMutability": "view"
    },
    {
      "type": "function",
      "name": "usdc",
      "inputs": [],
      "outputs": [
        {
          "name": "",
          "type": "address",
          "internalType": "contract IERC20"
        }
      ],
      "stateMutability": "view"
    },
    {
      "type": "event",
      "name": "AMMContractSet",
      "inputs": [
        {
          "name": "oldAMM",
          "type": "address",
          "indexed": true,
          "internalType": "address"
        },
        {
          "name": "newAMM",
          "type": "address",
          "indexed": true,
          "internalType": "address"
        }
      ],
      "anonymous": false
    },
    {
      "type": "event",
      "name": "OwnershipTransferred",
      "inputs": [
        {
          "name": "previousOwner",
          "type": "address",
          "indexed": true,
          "internalType": "address"
        },
        {
          "name": "newOwner",
          "type": "address",
          "indexed": true,
          "internalType": "address"
        }
      ],
      "anonymous": false
    },
    {
      "type": "event",
      "name": "TokensBurned",
      "inputs": [
        {
          "name": "user",
          "type": "address",
          "indexed": true,
          "internalType": "address"
        },
        {
          "name": "upAmount",
          "type": "uint256",
          "indexed": false,
          "internalType": "uint256"
        },
        {
          "name": "downAmount",
          "type": "uint256",
          "indexed": false,
          "internalType": "uint256"
        },
        {
          "name": "usdcReceived",
          "type": "uint256",
          "indexed": false,
          "internalType": "uint256"
        }
      ],
      "anonymous": false
    },
    {
      "type": "event",
      "name": "TokensMinted",
      "inputs": [
        {
          "name": "user",
          "type": "address",
          "indexed": true,
          "internalType": "address"
        },
        {
          "name": "usdcAmount",
          "type": "uint256",
          "indexed": false,
          "internalType": "uint256"
        },
        {
          "name": "upAmount",
          "type": "uint256",
          "indexed": false,
          "internalType": "uint256"
        },
        {
          "name": "downAmount",
          "type": "uint256",
          "indexed": false,
          "internalType": "uint256"
        }
      ],
      "anonymous": false
    },
    {
      "type": "error",
      "name": "AMMNotSet",
      "inputs": []
    },
    {
      "type": "error",
      "name": "InsufficientAllowance",
      "inputs": []
    },
    {
      "type": "error",
      "name": "InvalidAMMContract",
      "inputs": []
    },
    {
      "type": "error",
      "name": "InvalidAmount",
      "inputs": []
    },
    {
      "type": "error",
      "name": "OwnableInvalidOwner",
      "inputs": [
        {
          "name": "owner",
          "type": "address",
          "internalType": "address"
        }
      ]
    },
    {
      "type": "error",
      "name": "OwnableUnauthorizedAccount",
      "inputs": [
        {
          "name": "account",
          "type": "address",
          "internalType": "address"
        }
      ]
    },
    {
      "type": "error",
      "name": "ReentrancyGuardReentrantCall",
      "inputs": []
    },
    {
      "type": "error",
      "name": "TransferFailed",
      "inputs": []
    }
  ],
  "bytecode": {
    "object": "0x60e060405234801561000f575f5ffd5b5060405161155438038061155483398101604081905261002e9161013f565b806001600160a01b03811661005c57604051631e4fbdf760e01b81525f600482015260240160405180910390fd5b610065816100d5565b50600180556001600160a01b038416158061008757506001600160a01b038316155b8061009957506001600160a01b038216155b156100b757604051636677a68d60e01b815260040160405180910390fd5b506001600160a01b0392831660805290821660a0521660c052610190565b5f80546001600160a01b038381166001600160a01b0319831681178455604051919092169283917f8be0079c531659141344cd1fd0a4f28419497f9722a3daafe3b4186f6b6457e09190a35050565b80516001600160a01b038116811461013a575f5ffd5b919050565b5f5f5f5f60808587031215610152575f5ffd5b61015b85610124565b935061016960208601610124565b925061017760408601610124565b915061018560608601610124565b905092959194509250565b60805160a05160c0516113316102235f395f818161021f015281816102840152818161099e01528181610c8801528181610d7201528181610de9015261110301525f81816101a5015281816108ff01528181610a8c01528181610e6801528181610f5201528181610fc9015261102e01525f818161016b015281816104030152818161067401526107f601526113315ff3fe608060405234801561000f575f5ffd5b50600436106100e5575f3560e01c8063715018a61161008857806397304ced1161006357806397304ced146101ff578063b122fa2414610212578063c54db5e41461021a578063f2fde38b14610241575f5ffd5b8063715018a6146101c75780638da5cb5b146101cf5780638e81c64d146101ec575f5ffd5b80633cfd1ccc116100c35780633cfd1ccc1461015e5780633e413bee14610166578063551512de1461018d57806361a548e3146101a0575f5ffd5b80631b9b6d00146100e9578063204c6712146101045780633bfc268714610119575b5f5ffd5b6100f1610254565b6040519081526020015b60405180910390f35b6101176101123660046111c7565b610308565b005b6002546101399073ffffffffffffffffffffffffffffffffffffffff1681565b60405173ffffffffffffffffffffffffffffffffffffffff90911681526020016100fb565b6100f16103d3565b6101397f000000000000000000000000000000000000000000000000000000000000000081565b61011761019b3660046111e9565b610447565b6101397f000000000000000000000000000000000000000000000000000000000000000081565b61011761056d565b5f5473ffffffffffffffffffffffffffffffffffffffff16610139565b6101176101fa366004611228565b610580565b61011761020d366004611248565b61077a565b6100f1610a5c565b6101397f000000000000000000000000000000000000000000000000000000000000000081565b61011761024f3660046111c7565b610ad0565b6040517f70a082310000000000000000000000000000000000000000000000000000000081523060048201525f907f000000000000000000000000000000000000000000000000000000000000000073ffffffffffffffffffffffffffffffffffffffff16906370a08231906024015b602060405180830381865afa1580156102df573d5f5f3e3d5ffd5b505050506040513d601f19601f82011682018060405250810190610303919061125f565b905090565b610310610b35565b73ffffffffffffffffffffffffffffffffffffffff811661035d576040517f6677a68d00000000000000000000000000000000000000000000000000000000815260040160405180910390fd5b6002805473ffffffffffffffffffffffffffffffffffffffff8381167fffffffffffffffffffffffff0000000000000000000000000000000000000000831681179093556040519116919082907fc2913845ea013b0c62d8ca7f9f1fd894332f759939fad4e91c554b258c82bf5c905f90a35050565b6040517f70a082310000000000000000000000000000000000000000000000000000000081523060048201525f907f000000000000000000000000000000000000000000000000000000000000000073ffffffffffffffffffffffffffffffffffffffff16906370a08231906024016102c4565b61044f610b35565b73ffffffffffffffffffffffffffffffffffffffff811661049c576040517f6677a68d00000000000000000000000000000000000000000000000000000000815260040160405180910390fd5b6040517fa9059cbb00000000000000000000000000000000000000000000000000000000815273ffffffffffffffffffffffffffffffffffffffff82811660048301526024820184905284169063a9059cbb906044016020604051808303815f875af115801561050e573d5f5f3e3d5ffd5b505050506040513d601f19601f820116820180604052508101906105329190611276565b610568576040517f90b8ec1800000000000000000000000000000000000000000000000000000000815260040160405180910390fd5b505050565b610575610b35565b61057e5f610b87565b565b610588610bfb565b81158015610594575080155b156105cb576040517f2c5211c600000000000000000000000000000000000000000000000000000000815260040160405180910390fd5b60025473ffffffffffffffffffffffffffffffffffffffff1661061a576040517f8c23770500000000000000000000000000000000000000000000000000000000815260040160405180910390fd5b5f61062482610c3e565b61062d84610e1e565b61063791906112c2565b90508015610729576040517fa9059cbb000000000000000000000000000000000000000000000000000000008152336004820152602481018290527f000000000000000000000000000000000000000000000000000000000000000073ffffffffffffffffffffffffffffffffffffffff169063a9059cbb906044016020604051808303815f875af11580156106cf573d5f5f3e3d5ffd5b505050506040513d601f19601f820116820180604052508101906106f39190611276565b610729576040517f90b8ec1800000000000000000000000000000000000000000000000000000000815260040160405180910390fd5b604080518481526020810184905290810182905233907f19783b34589160c168487dc7f9c51ae0bcefe67a47d6708fba90f6ce0366d3d19060600160405180910390a25061077660018055565b5050565b610782610bfb565b805f036107bb576040517f2c5211c600000000000000000000000000000000000000000000000000000000815260040160405180910390fd5b6040517f23b872dd000000000000000000000000000000000000000000000000000000008152336004820152306024820152604481018290527f000000000000000000000000000000000000000000000000000000000000000073ffffffffffffffffffffffffffffffffffffffff16906323b872dd906064016020604051808303815f875af1158015610851573d5f5f3e3d5ffd5b505050506040513d601f19601f820116820180604052508101906108759190611276565b6108ab576040517f90b8ec1800000000000000000000000000000000000000000000000000000000815260040160405180910390fd5b5f60026108bd8364e8d4a510006112d5565b6108c791906112ec565b6040517f40c10f19000000000000000000000000000000000000000000000000000000008152336004820152602481018290529091507f000000000000000000000000000000000000000000000000000000000000000073ffffffffffffffffffffffffffffffffffffffff16906340c10f19906044015f604051808303815f87803b158015610955575f5ffd5b505af1158015610967573d5f5f3e3d5ffd5b50506040517f40c10f19000000000000000000000000000000000000000000000000000000008152336004820152602481018490527f000000000000000000000000000000000000000000000000000000000000000073ffffffffffffffffffffffffffffffffffffffff1692506340c10f1991506044015f604051808303815f87803b1580156109f6575f5ffd5b505af1158015610a08573d5f5f3e3d5ffd5b505060408051858152602081018590529081018490523392507f6155cfd0fd028b0ca77e8495a60cbe563e8bce8611f0aad6fedbdaafc05d44a2915060600160405180910390a250610a5960018055565b50565b6040517f70a082310000000000000000000000000000000000000000000000000000000081523060048201525f907f000000000000000000000000000000000000000000000000000000000000000073ffffffffffffffffffffffffffffffffffffffff16906370a08231906024016102c4565b610ad8610b35565b73ffffffffffffffffffffffffffffffffffffffff8116610b2c576040517f1e4fbdf70000000000000000000000000000000000000000000000000000000081525f60048201526024015b60405180910390fd5b610a5981610b87565b5f5473ffffffffffffffffffffffffffffffffffffffff16331461057e576040517f118cdaa7000000000000000000000000000000000000000000000000000000008152336004820152602401610b23565b5f805473ffffffffffffffffffffffffffffffffffffffff8381167fffffffffffffffffffffffff0000000000000000000000000000000000000000831681178455604051919092169283917f8be0079c531659141344cd1fd0a4f28419497f9722a3daafe3b4186f6b6457e09190a35050565b600260015403610c37576040517f3ee5aeb500000000000000000000000000000000000000000000000000000000815260040160405180910390fd5b6002600155565b5f815f03610c4d57505f919050565b6040517f23b872dd000000000000000000000000000000000000000000000000000000008152336004820152306024820152604481018390527f000000000000000000000000000000000000000000000000000000000000000073ffffffffffffffffffffffffffffffffffffffff16906323b872dd906064016020604051808303815f875af1158015610ce3573d5f5f3e3d5ffd5b505050506040513d601f19601f82011682018060405250810190610d079190611276565b610d3d576040517f90b8ec1800000000000000000000000000000000000000000000000000000000815260040160405180910390fd5b6040517f9dc29fac000000000000000000000000000000000000000000000000000000008152306004820152602481018390527f000000000000000000000000000000000000000000000000000000000000000073ffffffffffffffffffffffffffffffffffffffff1690639dc29fac906044015f604051808303815f87803b158015610dc8575f5ffd5b505af1158015610dda573d5f5f3e3d5ffd5b5050505064e8d4a51000610e0e7f000000000000000000000000000000000000000000000000000000000000000084610fea565b610e1891906112ec565b92915050565b5f815f03610e2d57505f919050565b6040517f23b872dd000000000000000000000000000000000000000000000000000000008152336004820152306024820152604481018390527f000000000000000000000000000000000000000000000000000000000000000073ffffffffffffffffffffffffffffffffffffffff16906323b872dd906064016020604051808303815f875af1158015610ec3573d5f5f3e3d5ffd5b505050506040513d601f19601f82011682018060405250810190610ee79190611276565b610f1d576040517f90b8ec1800000000000000000000000000000000000000000000000000000000815260040160405180910390fd5b6040517f9dc29fac000000000000000000000000000000000000000000000000000000008152306004820152602481018390527f000000000000000000000000000000000000000000000000000000000000000073ffffffffffffffffffffffffffffffffffffffff1690639dc29fac906044015f604051808303815f87803b158015610fa8575f5ffd5b505af1158015610fba573d5f5f3e3d5ffd5b5050505064e8d4a51000610e0e7f0000000000000000000000000000000000000000000000000000000000000000845b6002545f9073ffffffffffffffffffffffffffffffffffffffff16611010575080610e18565b60025473ffffffffffffffffffffffffffffffffffffffff908116907f0000000000000000000000000000000000000000000000000000000000000000811690851603611101575f8173ffffffffffffffffffffffffffffffffffffffff1663ca698dfb6040518163ffffffff1660e01b8152600401602060405180830381865afa1580156110a1573d5f5f3e3d5ffd5b505050506040513d601f19601f820116820180604052508101906110c5919061125f565b9050805f036110d8578392505050610e18565b5f670de0b6b3a76400006110ec83876112d5565b6110f691906112ec565b9350610e1892505050565b7f000000000000000000000000000000000000000000000000000000000000000073ffffffffffffffffffffffffffffffffffffffff168473ffffffffffffffffffffffffffffffffffffffff160361119e575f8173ffffffffffffffffffffffffffffffffffffffff16637c215d3e6040518163ffffffff1660e01b8152600401602060405180830381865afa1580156110a1573d5f5f3e3d5ffd5b509092915050565b73ffffffffffffffffffffffffffffffffffffffff81168114610a59575f5ffd5b5f602082840312156111d7575f5ffd5b81356111e2816111a6565b9392505050565b5f5f5f606084860312156111fb575f5ffd5b8335611206816111a6565b925060208401359150604084013561121d816111a6565b809150509250925092565b5f5f60408385031215611239575f5ffd5b50508035926020909101359150565b5f60208284031215611258575f5ffd5b5035919050565b5f6020828403121561126f575f5ffd5b5051919050565b5f60208284031215611286575f5ffd5b815180151581146111e2575f5ffd5b7f4e487b71000000000000000000000000000000000000000000000000000000005f52601160045260245ffd5b80820180821115610e1857610e18611295565b8082028115828204841417610e1857610e18611295565b5f8261131f577f4e487b71000000000000000000000000000000000000000000000000000000005f52601260045260245ffd5b50049056fea164736f6c634300081d000a",
    "linkReferences": {}
  },
  "methodIdentifiers": {
    "ammContract()": "3bfc2687",
    "burnTokens(uint256,uint256)": "8e81c64d",
    "downToken()": "c54db5e4",
    "emergencyWithdraw(address,uint256,address)": "551512de",
    "getDOWNBalance()": "1b9b6d00",
    "getUPBalance()": "b122fa24",
    "getUSDCBalance()": "3cfd1ccc",
    "mintTokens(uint256)": "97304ced",
    "owner()": "8da5cb5b",
    "renounceOwnership()": "715018a6",
    "setAMMContract(address)": "204c6712",
    "transferOwnership(address)": "f2fde38b",
    "upToken()": "61a548e3",
    "usdc()": "3e413bee"
  },
  "id": 30
}