{
  "abi": [
    {
      "type": "constructor",
      "inputs": [
        {
          "name": "_upToken",
          "type": "address",
          "internalType": "address"
        },
        {
          "name": "_downToken",
          "type": "address",
          "internalType": "address"
        },
        {
          "name": "_owner",
          "type": "address",
          "internalType": "address"
        }
      ],
      "stateMutability": "nonpayable"
    },
    {
      "type": "function",
      "name": "FEE_DENOMINATOR",
      "inputs": [],
      "outputs": [
        {
          "name": "",
          "type": "uint256",
          "internalType": "uint256"
        }
      ],
      "stateMutability": "view"
    },
    {
      "type": "function",
      "name": "FEE_NUMERATOR",
      "inputs": [],
      "outputs": [
        {
          "name": "",
          "type": "uint256",
          "internalType": "uint256"
        }
      ],
      "stateMutability": "view"
    },
    {
      "type": "function",
      "name": "MAX_TRADE_SIZE",
      "inputs": [],
      "outputs": [
        {
          "name": "",
          "type": "uint256",
          "internalType": "uint256"
        }
      ],
      "stateMutability": "view"
    },
    {
      "type": "function",
      "name": "addLiquidity",
      "inputs": [
        {
          "name": "upAmount",
          "type": "uint256",
          "internalType": "uint256"
        },
        {
          "name": "downAmount",
          "type": "uint256",
          "internalType": "uint256"
        }
      ],
      "outputs": [
        {
          "name": "lpTokens",
          "type": "uint256",
          "internalType": "uint256"
        }
      ],
      "stateMutability": "nonpayable"
    },
    {
      "type": "function",
      "name": "allowance",
      "inputs": [
        {
          "name": "owner",
          "type": "address",
          "internalType": "address"
        },
        {
          "name": "spender",
          "type": "address",
          "internalType": "address"
        }
      ],
      "outputs": [
        {
          "name": "",
          "type": "uint256",
          "internalType": "uint256"
        }
      ],
      "stateMutability": "view"
    },
    {
      "type": "function",
      "name": "approve",
      "inputs": [
        {
          "name": "spender",
          "type": "address",
          "internalType": "address"
        },
        {
          "name": "value",
          "type": "uint256",
          "internalType": "uint256"
        }
      ],
      "outputs": [
        {
          "name": "",
          "type": "bool",
          "internalType": "bool"
        }
      ],
      "stateMutability": "nonpayable"
    },
    {
      "type": "function",
      "name": "balanceOf",
      "inputs": [
        {
          "name": "account",
          "type": "address",
          "internalType": "address"
        }
      ],
      "outputs": [
        {
          "name": "",
          "type": "uint256",
          "internalType": "uint256"
        }
      ],
      "stateMutability": "view"
    },
    {
      "type": "function",
      "name": "decimals",
      "inputs": [],
      "outputs": [
        {
          "name": "",
          "type": "uint8",
          "internalType": "uint8"
        }
      ],
      "stateMutability": "view"
    },
    {
      "type": "function",
      "name": "downReserves",
      "inputs": [],
      "outputs": [
        {
          "name": "",
          "type": "uint256",
          "internalType": "uint256"
        }
      ],
      "stateMutability": "view"
    },
    {
      "type": "function",
      "name": "downToken",
      "inputs": [],
      "outputs": [
        {
          "name": "",
          "type": "address",
          "internalType": "contract IERC20"
        }
      ],
      "stateMutability": "view"
    },
    {
      "type": "function",
      "name": "emergencyWithdraw",
      "inputs": [
        {
          "name": "token",
          "type": "address",
          "internalType": "contract IERC20"
        },
        {
          "name": "amount",
          "type": "uint256",
          "internalType": "uint256"
        },
        {
          "name": "to",
          "type": "address",
          "internalType": "address"
        }
      ],
      "outputs": [],
      "stateMutability": "nonpayable"
    },
    {
      "type": "function",
      "name": "getAmountIn",
      "inputs": [
        {
          "name": "amountOut",
          "type": "uint256",
          "internalType": "uint256"
        },
        {
          "name": "reserveIn",
          "type": "uint256",
          "internalType": "uint256"
        },
        {
          "name": "reserveOut",
          "type": "uint256",
          "internalType": "uint256"
        }
      ],
      "outputs": [
        {
          "name": "amountIn",
          "type": "uint256",
          "internalType": "uint256"
        }
      ],
      "stateMutability": "pure"
    },
    {
      "type": "function",
      "name": "getAmountOut",
      "inputs": [
        {
          "name": "amountIn",
          "type": "uint256",
          "internalType": "uint256"
        },
        {
          "name": "reserveIn",
          "type": "uint256",
          "internalType": "uint256"
        },
        {
          "name": "reserveOut",
          "type": "uint256",
          "internalType": "uint256"
        }
      ],
      "outputs": [
        {
          "name": "amountOut",
          "type": "uint256",
          "internalType": "uint256"
        }
      ],
      "stateMutability": "pure"
    },
    {
      "type": "function",
      "name": "getDownPrice",
      "inputs": [],
      "outputs": [
        {
          "name": "",
          "type": "uint256",
          "internalType": "uint256"
        }
      ],
      "stateMutability": "view"
    },
    {
      "type": "function",
      "name": "getUpPrice",
      "inputs": [],
      "outputs": [
        {
          "name": "",
          "type": "uint256",
          "internalType": "uint256"
        }
      ],
      "stateMutability": "view"
    },
    {
      "type": "function",
      "name": "name",
      "inputs": [],
      "outputs": [
        {
          "name": "",
          "type": "string",
          "internalType": "string"
        }
      ],
      "stateMutability": "view"
    },
    {
      "type": "function",
      "name": "owner",
      "inputs": [],
      "outputs": [
        {
          "name": "",
          "type": "address",
          "internalType": "address"
        }
      ],
      "stateMutability": "view"
    },
    {
      "type": "function",
      "name": "removeLiquidity",
      "inputs": [
        {
          "name": "lpTokens",
          "type": "uint256",
          "internalType": "uint256"
        }
      ],
      "outputs": [
        {
          "name": "upAmount",
          "type": "uint256",
          "internalType": "uint256"
        },
        {
          "name": "downAmount",
          "type": "uint256",
          "internalType": "uint256"
        }
      ],
      "stateMutability": "nonpayable"
    },
    {
      "type": "function",
      "name": "renounceOwnership",
      "inputs": [],
      "outputs": [],
      "stateMutability": "nonpayable"
    },
    {
      "type": "function",
      "name": "swapDownForUp",
      "inputs": [
        {
          "name": "amountIn",
          "type": "uint256",
          "internalType": "uint256"
        },
        {
          "name": "minAmountOut",
          "type": "uint256",
          "internalType": "uint256"
        }
      ],
      "outputs": [],
      "stateMutability": "nonpayable"
    },
    {
      "type": "function",
      "name": "swapUpForDown",
      "inputs": [
        {
          "name": "amountIn",
          "type": "uint256",
          "internalType": "uint256"
        },
        {
          "name": "minAmountOut",
          "type": "uint256",
          "internalType": "uint256"
        }
      ],
      "outputs": [],
      "stateMutability": "nonpayable"
    },
    {
      "type": "function",
      "name": "symbol",
      "inputs": [],
      "outputs": [
        {
          "name": "",
          "type": "string",
          "internalType": "string"
        }
      ],
      "stateMutability": "view"
    },
    {
      "type": "function",
      "name": "totalSupply",
      "inputs": [],
      "outputs": [
        {
          "name": "",
          "type": "uint256",
          "internalType": "uint256"
        }
      ],
      "stateMutability": "view"
    },
    {
      "type": "function",
      "name": "transfer",
      "inputs": [
        {
          "name": "to",
          "type": "address",
          "internalType": "address"
        },
        {
          "name": "value",
          "type": "uint256",
          "internalType": "uint256"
        }
      ],
      "outputs": [
        {
          "name": "",
          "type": "bool",
          "internalType": "bool"
        }
      ],
      "stateMutability": "nonpayable"
    },
    {
      "type": "function",
      "name": "transferFrom",
      "inputs": [
        {
          "name": "from",
          "type": "address",
          "internalType": "address"
        },
        {
          "name": "to",
          "type": "address",
          "internalType": "address"
        },
        {
          "name": "value",
          "type": "uint256",
          "internalType": "uint256"
        }
      ],
      "outputs": [
        {
          "name": "",
          "type": "bool",
          "internalType": "bool"
        }
      ],
      "stateMutability": "nonpayable"
    },
    {
      "type": "function",
      "name": "transferOwnership",
      "inputs": [
        {
          "name": "newOwner",
          "type": "address",
          "internalType": "address"
        }
      ],
      "outputs": [],
      "stateMutability": "nonpayable"
    },
    {
      "type": "function",
      "name": "upReserves",
      "inputs": [],
      "outputs": [
        {
          "name": "",
          "type": "uint256",
          "internalType": "uint256"
        }
      ],
      "stateMutability": "view"
    },
    {
      "type": "function",
      "name": "upToken",
      "inputs": [],
      "outputs": [
        {
          "name": "",
          "type": "address",
          "internalType": "contract IERC20"
        }
      ],
      "stateMutability": "view"
    },
    {
      "type": "event",
      "name": "Approval",
      "inputs": [
        {
          "name": "owner",
          "type": "address",
          "indexed": true,
          "internalType": "address"
        },
        {
          "name": "spender",
          "type": "address",
          "indexed": true,
          "internalType": "address"
        },
        {
          "name": "value",
          "type": "uint256",
          "indexed": false,
          "internalType": "uint256"
        }
      ],
      "anonymous": false
    },
    {
      "type": "event",
      "name": "FeeCollected",
      "inputs": [
        {
          "name": "upFees",
          "type": "uint256",
          "indexed": false,
          "internalType": "uint256"
        },
        {
          "name": "downFees",
          "type": "uint256",
          "indexed": false,
          "internalType": "uint256"
        }
      ],
      "anonymous": false
    },
    {
      "type": "event",
      "name": "LiquidityAdded",
      "inputs": [
        {
          "name": "user",
          "type": "address",
          "indexed": true,
          "internalType": "address"
        },
        {
          "name": "upAmount",
          "type": "uint256",
          "indexed": false,
          "internalType": "uint256"
        },
        {
          "name": "downAmount",
          "type": "uint256",
          "indexed": false,
          "internalType": "uint256"
        },
        {
          "name": "lpTokens",
          "type": "uint256",
          "indexed": false,
          "internalType": "uint256"
        }
      ],
      "anonymous": false
    },
    {
      "type": "event",
      "name": "LiquidityRemoved",
      "inputs": [
        {
          "name": "user",
          "type": "address",
          "indexed": true,
          "internalType": "address"
        },
        {
          "name": "upAmount",
          "type": "uint256",
          "indexed": false,
          "internalType": "uint256"
        },
        {
          "name": "downAmount",
          "type": "uint256",
          "indexed": false,
          "internalType": "uint256"
        },
        {
          "name": "lpTokens",
          "type": "uint256",
          "indexed": false,
          "internalType": "uint256"
        }
      ],
      "anonymous": false
    },
    {
      "type": "event",
      "name": "OwnershipTransferred",
      "inputs": [
        {
          "name": "previousOwner",
          "type": "address",
          "indexed": true,
          "internalType": "address"
        },
        {
          "name": "newOwner",
          "type": "address",
          "indexed": true,
          "internalType": "address"
        }
      ],
      "anonymous": false
    },
    {
      "type": "event",
      "name": "SwapExecuted",
      "inputs": [
        {
          "name": "user",
          "type": "address",
          "indexed": true,
          "internalType": "address"
        },
        {
          "name": "isUpToDown",
          "type": "bool",
          "indexed": false,
          "internalType": "bool"
        },
        {
          "name": "amountIn",
          "type": "uint256",
          "indexed": false,
          "internalType": "uint256"
        },
        {
          "name": "amountOut",
          "type": "uint256",
          "indexed": false,
          "internalType": "uint256"
        },
        {
          "name": "fee",
          "type": "uint256",
          "indexed": false,
          "internalType": "uint256"
        }
      ],
      "anonymous": false
    },
    {
      "type": "event",
      "name": "Transfer",
      "inputs": [
        {
          "name": "from",
          "type": "address",
          "indexed": true,
          "internalType": "address"
        },
        {
          "name": "to",
          "type": "address",
          "indexed": true,
          "internalType": "address"
        },
        {
          "name": "value",
          "type": "uint256",
          "indexed": false,
          "internalType": "uint256"
        }
      ],
      "anonymous": false
    },
    {
      "type": "error",
      "name": "ERC20InsufficientAllowance",
      "inputs": [
        {
          "name": "spender",
          "type": "address",
          "internalType": "address"
        },
        {
          "name": "allowance",
          "type": "uint256",
          "internalType": "uint256"
        },
        {
          "name": "needed",
          "type": "uint256",
          "internalType": "uint256"
        }
      ]
    },
    {
      "type": "error",
      "name": "ERC20InsufficientBalance",
      "inputs": [
        {
          "name": "sender",
          "type": "address",
          "internalType": "address"
        },
        {
          "name": "balance",
          "type": "uint256",
          "internalType": "uint256"
        },
        {
          "name": "needed",
          "type": "uint256",
          "internalType": "uint256"
        }
      ]
    },
    {
      "type": "error",
      "name": "ERC20InvalidApprover",
      "inputs": [
        {
          "name": "approver",
          "type": "address",
          "internalType": "address"
        }
      ]
    },
    {
      "type": "error",
      "name": "ERC20InvalidReceiver",
      "inputs": [
        {
          "name": "receiver",
          "type": "address",
          "internalType": "address"
        }
      ]
    },
    {
      "type": "error",
      "name": "ERC20InvalidSender",
      "inputs": [
        {
          "name": "sender",
          "type": "address",
          "internalType": "address"
        }
      ]
    },
    {
      "type": "error",
      "name": "ERC20InvalidSpender",
      "inputs": [
        {
          "name": "spender",
          "type": "address",
          "internalType": "address"
        }
      ]
    },
    {
      "type": "error",
      "name": "InsufficientLiquidity",
      "inputs": []
    },
    {
      "type": "error",
      "name": "InvalidAmount",
      "inputs": []
    },
    {
      "type": "error",
      "name": "InvalidToken",
      "inputs": []
    },
    {
      "type": "error",
      "name": "MaxTradeSizeExceeded",
      "inputs": []
    },
    {
      "type": "error",
      "name": "OwnableInvalidOwner",
      "inputs": [
        {
          "name": "owner",
          "type": "address",
          "internalType": "address"
        }
      ]
    },
    {
      "type": "error",
      "name": "OwnableUnauthorizedAccount",
      "inputs": [
        {
          "name": "account",
          "type": "address",
          "internalType": "address"
        }
      ]
    },
    {
      "type": "error",
      "name": "ReentrancyGuardReentrantCall",
      "inputs": []
    },
    {
      "type": "error",
      "name": "SlippageExceeded",
      "inputs": []
    },
    {
      "type": "error",
      "name": "TransferFailed",
      "inputs": []
    }
  ],
  "bytecode": {
    "object": "0x60c060405234801561000f575f5ffd5b506040516122a43803806122a483398101604081905261002e91610195565b806040518060400160405280601081526020016f2aa816a227aba7102628102a37b5b2b760811b8152506040518060400160405280600a815260200169055502d444f574e2d4c560b41b815250816003908161008a919061026d565b506004610097828261026d565b5050506001600160a01b0381166100c757604051631e4fbdf760e01b81525f600482015260240160405180910390fd5b6100d081610129565b5060016006556001600160a01b03831615806100f357506001600160a01b038216155b156101115760405163c1ab6dc160e01b815260040160405180910390fd5b506001600160a01b039182166080521660a052610327565b600580546001600160a01b038381166001600160a01b0319831681179093556040519116919082907f8be0079c531659141344cd1fd0a4f28419497f9722a3daafe3b4186f6b6457e0905f90a35050565b80516001600160a01b0381168114610190575f5ffd5b919050565b5f5f5f606084860312156101a7575f5ffd5b6101b08461017a565b92506101be6020850161017a565b91506101cc6040850161017a565b90509250925092565b634e487b7160e01b5f52604160045260245ffd5b600181811c908216806101fd57607f821691505b60208210810361021b57634e487b7160e01b5f52602260045260245ffd5b50919050565b601f82111561026857805f5260205f20601f840160051c810160208510156102465750805b601f840160051c820191505b81811015610265575f8155600101610252565b50505b505050565b81516001600160401b03811115610286576102866101d5565b61029a8161029484546101e9565b84610221565b6020601f8211600181146102cc575f83156102b55750848201515b5f19600385901b1c1916600184901b178455610265565b5f84815260208120601f198516915b828110156102fb57878501518255602094850194600190920191016102db565b508482101561031857868401515f19600387901b60f8161c191681555b50505050600190811b01905550565b60805160a051611f246103805f395f81816103c10152818161065201528181610b590152818161108c015261130901525f818161028f015281816107d1015281816109da01528181610fa201526112190152611f245ff3fe608060405234801561000f575f5ffd5b50600436106101bb575f3560e01c806385f8c259116100f3578063b8f46f1611610093578063d73792a91161006e578063d73792a9146103eb578063dd62ed3e146103f4578063e63a8bda14610439578063f2fde38b14610442575f5ffd5b8063b8f46f16146103b3578063c54db5e4146103bc578063ca698dfb146103e3575f5ffd5b80639c8f9f23116100ce5780639c8f9f23146103545780639cd441da1461037c578063a9059cbb1461038f578063acdb5208146103a2575f5ffd5b806385f8c2591461031b5780638da5cb5b1461032e57806395d89b411461034c575f5ffd5b806341cd47bf1161015e57806361a548e31161013957806361a548e31461028a57806370a08231146102d6578063715018a61461030b5780637c215d3e14610313575f5ffd5b806341cd47bf1461025c57806351ed1bcb14610264578063551512de14610277575f5ffd5b80630d34964c116101995780630d34964c1461021d57806318160ddd1461023257806323b872dd1461023a578063313ce5671461024d575f5ffd5b8063054d50d4146101bf57806306fdde03146101e5578063095ea7b3146101fa575b5f5ffd5b6101d26101cd366004611c22565b610455565b6040519081526020015b60405180910390f35b6101ed6104d3565b6040516101dc9190611c4b565b61020d610208366004611cd5565b610563565b60405190151581526020016101dc565b61023061022b366004611cff565b61057c565b005b6002546101d2565b61020d610248366004611d1f565b6108e1565b604051601281526020016101dc565b6101d2601e81565b610230610272366004611cff565b610904565b610230610285366004611d5d565b610c56565b6102b17f000000000000000000000000000000000000000000000000000000000000000081565b60405173ffffffffffffffffffffffffffffffffffffffff90911681526020016101dc565b6101d26102e4366004611d9c565b73ffffffffffffffffffffffffffffffffffffffff165f9081526020819052604090205490565b610230610d7c565b6101d2610d8f565b6101d2610329366004611c22565b610dc5565b60055473ffffffffffffffffffffffffffffffffffffffff166102b1565b6101ed610e56565b610367610362366004611db7565b610e65565b604080519283526020830191909152016101dc565b6101d261038a366004611cff565b611193565b61020d61039d366004611cd5565b6114f9565b6101d269021e19e0c9bab240000081565b6101d260075481565b6102b17f000000000000000000000000000000000000000000000000000000000000000081565b6101d2611506565b6101d261271081565b6101d2610402366004611dce565b73ffffffffffffffffffffffffffffffffffffffff9182165f90815260016020908152604080832093909416825291909152205490565b6101d260085481565b610230610450366004611d9c565b61152d565b5f835f0361046457505f6104cc565b82158061046f575081155b1561047b57505f6104cc565b5f610489601e612710611e32565b6104939086611e45565b90505f6104a08483611e45565b90505f826104b061271088611e45565b6104ba9190611e5c565b90506104c68183611e6f565b93505050505b9392505050565b6060600380546104e290611ea7565b80601f016020809104026020016040519081016040528092919081815260200182805461050e90611ea7565b80156105595780601f1061053057610100808354040283529160200191610559565b820191905f5260205f20905b81548152906001019060200180831161053c57829003601f168201915b5050505050905090565b5f33610570818585611595565b60019150505b92915050565b6105846115a2565b81158061059a575069021e19e0c9bab240000082115b156105d1576040517f2c5211c600000000000000000000000000000000000000000000000000000000815260040160405180910390fd5b60075415806105e05750600854155b15610617576040517fbb55fd2700000000000000000000000000000000000000000000000000000000815260040160405180910390fd5b6040517f23b872dd000000000000000000000000000000000000000000000000000000008152336004820152306024820152604481018390527f000000000000000000000000000000000000000000000000000000000000000073ffffffffffffffffffffffffffffffffffffffff16906323b872dd906064016020604051808303815f875af11580156106ad573d5f5f3e3d5ffd5b505050506040513d601f19601f820116820180604052508101906106d19190611ef8565b610707576040517f90b8ec1800000000000000000000000000000000000000000000000000000000815260040160405180910390fd5b5f61071783600854600754610455565b90505f612710610728601e86611e45565b6107329190611e6f565b90508282101561076e576040517f8199f5f300000000000000000000000000000000000000000000000000000000815260040160405180910390fd5b8360085f82825461077f9190611e5c565b925050819055508160075f8282546107979190611e32565b90915550506040517fa9059cbb000000000000000000000000000000000000000000000000000000008152336004820152602481018390527f000000000000000000000000000000000000000000000000000000000000000073ffffffffffffffffffffffffffffffffffffffff169063a9059cbb906044016020604051808303815f875af115801561082c573d5f5f3e3d5ffd5b505050506040513d601f19601f820116820180604052508101906108509190611ef8565b610886576040517f90b8ec1800000000000000000000000000000000000000000000000000000000815260040160405180910390fd5b604080515f8152602081018690529081018390526060810182905233907f1b43ddf90e971181a7faf41549e512675072e84befadbba7873086509dec1fdc906080015b60405180910390a250506108dd6001600655565b5050565b5f336108ee8582856115e5565b6108f98585856116b3565b506001949350505050565b61090c6115a2565b811580610922575069021e19e0c9bab240000082115b15610959576040517f2c5211c600000000000000000000000000000000000000000000000000000000815260040160405180910390fd5b60075415806109685750600854155b1561099f576040517fbb55fd2700000000000000000000000000000000000000000000000000000000815260040160405180910390fd5b6040517f23b872dd000000000000000000000000000000000000000000000000000000008152336004820152306024820152604481018390527f000000000000000000000000000000000000000000000000000000000000000073ffffffffffffffffffffffffffffffffffffffff16906323b872dd906064016020604051808303815f875af1158015610a35573d5f5f3e3d5ffd5b505050506040513d601f19601f82011682018060405250810190610a599190611ef8565b610a8f576040517f90b8ec1800000000000000000000000000000000000000000000000000000000815260040160405180910390fd5b5f610a9f83600754600854610455565b90505f612710610ab0601e86611e45565b610aba9190611e6f565b905082821015610af6576040517f8199f5f300000000000000000000000000000000000000000000000000000000815260040160405180910390fd5b8360075f828254610b079190611e5c565b925050819055508160085f828254610b1f9190611e32565b90915550506040517fa9059cbb000000000000000000000000000000000000000000000000000000008152336004820152602481018390527f000000000000000000000000000000000000000000000000000000000000000073ffffffffffffffffffffffffffffffffffffffff169063a9059cbb906044016020604051808303815f875af1158015610bb4573d5f5f3e3d5ffd5b505050506040513d601f19601f82011682018060405250810190610bd89190611ef8565b610c0e576040517f90b8ec1800000000000000000000000000000000000000000000000000000000815260040160405180910390fd5b6040805160018152602081018690529081018390526060810182905233907f1b43ddf90e971181a7faf41549e512675072e84befadbba7873086509dec1fdc906080016108c9565b610c5e61175c565b73ffffffffffffffffffffffffffffffffffffffff8116610cab576040517fc1ab6dc100000000000000000000000000000000000000000000000000000000815260040160405180910390fd5b6040517fa9059cbb00000000000000000000000000000000000000000000000000000000815273ffffffffffffffffffffffffffffffffffffffff82811660048301526024820184905284169063a9059cbb906044016020604051808303815f875af1158015610d1d573d5f5f3e3d5ffd5b505050506040513d601f19601f82011682018060405250810190610d419190611ef8565b610d77576040517f90b8ec1800000000000000000000000000000000000000000000000000000000815260040160405180910390fd5b505050565b610d8461175c565b610d8d5f6117af565b565b5f6008545f03610d9e57505f90565b600854600754610db690670de0b6b3a7640000611e45565b610dc09190611e6f565b905090565b5f835f03610dd457505f6104cc565b821580610ddf575081155b15610deb57505f6104cc565b818410610df957505f6104cc565b5f612710610e078686611e45565b610e119190611e45565b90505f610e21601e612710611e32565b610e2b8786611e32565b610e359190611e45565b9050610e418183611e6f565b610e4c906001611e5c565b9695505050505050565b6060600480546104e290611ea7565b5f5f610e6f6115a2565b821580610e7d575060025483115b15610eb4576040517f2c5211c600000000000000000000000000000000000000000000000000000000815260040160405180910390fd5b600254600754610ec49085611e45565b610ece9190611e6f565b9150610ed960025490565b600854610ee69085611e45565b610ef09190611e6f565b9050811580610efd575080155b15610f34576040517f2c5211c600000000000000000000000000000000000000000000000000000000815260040160405180910390fd5b8160075f828254610f459190611e32565b925050819055508060085f828254610f5d9190611e32565b90915550610f6d90503384611825565b6040517fa9059cbb000000000000000000000000000000000000000000000000000000008152336004820152602481018390527f000000000000000000000000000000000000000000000000000000000000000073ffffffffffffffffffffffffffffffffffffffff169063a9059cbb906044016020604051808303815f875af1158015610ffd573d5f5f3e3d5ffd5b505050506040513d601f19601f820116820180604052508101906110219190611ef8565b611057576040517f90b8ec1800000000000000000000000000000000000000000000000000000000815260040160405180910390fd5b6040517fa9059cbb000000000000000000000000000000000000000000000000000000008152336004820152602481018290527f000000000000000000000000000000000000000000000000000000000000000073ffffffffffffffffffffffffffffffffffffffff169063a9059cbb906044016020604051808303815f875af11580156110e7573d5f5f3e3d5ffd5b505050506040513d601f19601f8201168201806040525081019061110b9190611ef8565b611141576040517f90b8ec1800000000000000000000000000000000000000000000000000000000815260040160405180910390fd5b604080518381526020810183905290810184905233907f1dc8bb69df2b8e91fbdcbfcf93d951b3f0000f085a95fe3f7946d6161439245d9060600160405180910390a261118e6001600655565b915091565b5f61119c6115a2565b8215806111a7575081155b156111de576040517f2c5211c600000000000000000000000000000000000000000000000000000000815260040160405180910390fd5b6040517f23b872dd000000000000000000000000000000000000000000000000000000008152336004820152306024820152604481018490527f000000000000000000000000000000000000000000000000000000000000000073ffffffffffffffffffffffffffffffffffffffff16906323b872dd906064016020604051808303815f875af1158015611274573d5f5f3e3d5ffd5b505050506040513d601f19601f820116820180604052508101906112989190611ef8565b6112ce576040517f90b8ec1800000000000000000000000000000000000000000000000000000000815260040160405180910390fd5b6040517f23b872dd000000000000000000000000000000000000000000000000000000008152336004820152306024820152604481018390527f000000000000000000000000000000000000000000000000000000000000000073ffffffffffffffffffffffffffffffffffffffff16906323b872dd906064016020604051808303815f875af1158015611364573d5f5f3e3d5ffd5b505050506040513d601f19601f820116820180604052508101906113889190611ef8565b6113be576040517f90b8ec1800000000000000000000000000000000000000000000000000000000815260040160405180910390fd5b6002545f036113e0576113d96113d48385611e45565b61187f565b905061143a565b5f6007546113ed60025490565b6113f79086611e45565b6114019190611e6f565b90505f60085461141060025490565b61141a9086611e45565b6114249190611e6f565b90508082106114335780611435565b815b925050505b805f03611473576040517f2c5211c600000000000000000000000000000000000000000000000000000000815260040160405180910390fd5b8260075f8282546114849190611e5c565b925050819055508160085f82825461149c9190611e5c565b909155506114ac905033826118dc565b604080518481526020810184905290810182905233907f64b83944e79c3ce8d4c297411de637c3e102d064677aac0c163976ebdcd6f50e9060600160405180910390a26105766001600655565b5f336105708185856116b3565b5f6007545f0361151557505f90565b600754600854610db690670de0b6b3a7640000611e45565b61153561175c565b73ffffffffffffffffffffffffffffffffffffffff8116611589576040517f1e4fbdf70000000000000000000000000000000000000000000000000000000081525f60048201526024015b60405180910390fd5b611592816117af565b50565b610d778383836001611936565b6002600654036115de576040517f3ee5aeb500000000000000000000000000000000000000000000000000000000815260040160405180910390fd5b6002600655565b73ffffffffffffffffffffffffffffffffffffffff8381165f908152600160209081526040808320938616835292905220547fffffffffffffffffffffffffffffffffffffffffffffffffffffffffffffffff8110156116ad578181101561169f576040517ffb8f41b200000000000000000000000000000000000000000000000000000000815273ffffffffffffffffffffffffffffffffffffffff841660048201526024810182905260448101839052606401611580565b6116ad84848484035f611936565b50505050565b73ffffffffffffffffffffffffffffffffffffffff8316611702576040517f96c6fd1e0000000000000000000000000000000000000000000000000000000081525f6004820152602401611580565b73ffffffffffffffffffffffffffffffffffffffff8216611751576040517fec442f050000000000000000000000000000000000000000000000000000000081525f6004820152602401611580565b610d77838383611a7b565b60055473ffffffffffffffffffffffffffffffffffffffff163314610d8d576040517f118cdaa7000000000000000000000000000000000000000000000000000000008152336004820152602401611580565b6005805473ffffffffffffffffffffffffffffffffffffffff8381167fffffffffffffffffffffffff0000000000000000000000000000000000000000831681179093556040519116919082907f8be0079c531659141344cd1fd0a4f28419497f9722a3daafe3b4186f6b6457e0905f90a35050565b73ffffffffffffffffffffffffffffffffffffffff8216611874576040517f96c6fd1e0000000000000000000000000000000000000000000000000000000081525f6004820152602401611580565b6108dd825f83611a7b565b5f815f0361188e57505f919050565b5f600261189c846001611e5c565b6118a69190611e6f565b9050825b808210156104cc5750806002816118c18187611e6f565b6118cb9190611e5c565b6118d59190611e6f565b91506118aa565b73ffffffffffffffffffffffffffffffffffffffff821661192b576040517fec442f050000000000000000000000000000000000000000000000000000000081525f6004820152602401611580565b6108dd5f8383611a7b565b73ffffffffffffffffffffffffffffffffffffffff8416611985576040517fe602df050000000000000000000000000000000000000000000000000000000081525f6004820152602401611580565b73ffffffffffffffffffffffffffffffffffffffff83166119d4576040517f94280d620000000000000000000000000000000000000000000000000000000081525f6004820152602401611580565b73ffffffffffffffffffffffffffffffffffffffff8085165f90815260016020908152604080832093871683529290522082905580156116ad578273ffffffffffffffffffffffffffffffffffffffff168473ffffffffffffffffffffffffffffffffffffffff167f8c5be1e5ebec7d5bd14f71427d1e84f3dd0314c0f7b2291e5b200ac8c7c3b92584604051611a6d91815260200190565b60405180910390a350505050565b73ffffffffffffffffffffffffffffffffffffffff8316611ab2578060025f828254611aa79190611e5c565b90915550611b629050565b73ffffffffffffffffffffffffffffffffffffffff83165f9081526020819052604090205481811015611b37576040517fe450d38c00000000000000000000000000000000000000000000000000000000815273ffffffffffffffffffffffffffffffffffffffff851660048201526024810182905260448101839052606401611580565b73ffffffffffffffffffffffffffffffffffffffff84165f9081526020819052604090209082900390555b73ffffffffffffffffffffffffffffffffffffffff8216611b8b57600280548290039055611bb6565b73ffffffffffffffffffffffffffffffffffffffff82165f9081526020819052604090208054820190555b8173ffffffffffffffffffffffffffffffffffffffff168373ffffffffffffffffffffffffffffffffffffffff167fddf252ad1be2c89b69c2b068fc378daa952ba7f163c4a11628f55a4df523b3ef83604051611c1591815260200190565b60405180910390a3505050565b5f5f5f60608486031215611c34575f5ffd5b505081359360208301359350604090920135919050565b602081525f82518060208401525f5b81811015611c775760208186018101516040868401015201611c5a565b505f6040828501015260407fffffffffffffffffffffffffffffffffffffffffffffffffffffffffffffffe0601f83011684010191505092915050565b73ffffffffffffffffffffffffffffffffffffffff81168114611592575f5ffd5b5f5f60408385031215611ce6575f5ffd5b8235611cf181611cb4565b946020939093013593505050565b5f5f60408385031215611d10575f5ffd5b50508035926020909101359150565b5f5f5f60608486031215611d31575f5ffd5b8335611d3c81611cb4565b92506020840135611d4c81611cb4565b929592945050506040919091013590565b5f5f5f60608486031215611d6f575f5ffd5b8335611d7a81611cb4565b9250602084013591506040840135611d9181611cb4565b809150509250925092565b5f60208284031215611dac575f5ffd5b81356104cc81611cb4565b5f60208284031215611dc7575f5ffd5b5035919050565b5f5f60408385031215611ddf575f5ffd5b8235611dea81611cb4565b91506020830135611dfa81611cb4565b809150509250929050565b7f4e487b71000000000000000000000000000000000000000000000000000000005f52601160045260245ffd5b8181038181111561057657610576611e05565b808202811582820484141761057657610576611e05565b8082018082111561057657610576611e05565b5f82611ea2577f4e487b71000000000000000000000000000000000000000000000000000000005f52601260045260245ffd5b500490565b600181811c90821680611ebb57607f821691505b602082108103611ef2577f4e487b71000000000000000000000000000000000000000000000000000000005f52602260045260245ffd5b50919050565b5f60208284031215611f08575f5ffd5b815180151581146104cc575f5ffdfea164736f6c634300081d000a",
    "linkReferences": {}
  },
  "methodIdentifiers": {
    "FEE_DENOMINATOR()": "d73792a9",
    "FEE_NUMERATOR()": "41cd47bf",
    "MAX_TRADE_SIZE()": "acdb5208",
    "addLiquidity(uint256,uint256)": "9cd441da",
    "allowance(address,address)": "dd62ed3e",
    "approve(address,uint256)": "095ea7b3",
    "balanceOf(address)": "70a08231",
    "decimals()": "313ce567",
    "downReserves()": "e63a8bda",
    "downToken()": "c54db5e4",
    "emergencyWithdraw(address,uint256,address)": "551512de",
    "getAmountIn(uint256,uint256,uint256)": "85f8c259",
    "getAmountOut(uint256,uint256,uint256)": "054d50d4",
    "getDownPrice()": "7c215d3e",
    "getUpPrice()": "ca698dfb",
    "name()": "06fdde03",
    "owner()": "8da5cb5b",
    "removeLiquidity(uint256)": "9c8f9f23",
    "renounceOwnership()": "715018a6",
    "swapDownForUp(uint256,uint256)": "0d34964c",
    "swapUpForDown(uint256,uint256)": "51ed1bcb",
    "symbol()": "95d89b41",
    "totalSupply()": "18160ddd",
    "transfer(address,uint256)": "a9059cbb",
    "transferFrom(address,address,uint256)": "23b872dd",
    "transferOwnership(address)": "f2fde38b",
    "upReserves()": "b8f46f16",
    "upToken()": "61a548e3"
  },
  "id": 29
}