{
  "abi": [
    {
      "type": "constructor",
      "inputs": [],
      "stateMutability": "nonpayable"
    },
    {
      "type": "receive",
      "stateMutability": "payable"
    },
    {
      "type": "function",
      "name": "enterMarket",
      "inputs": [
        {
          "name": "usdc",
          "type": "address",
          "internalType": "contract IERC20"
        },
        {
          "name": "liquidityEngine",
          "type": "address",
          "internalType": "contract ILiquidityEngine"
        },
        {
          "name": "amm",
          "type": "address",
          "internalType": "contract IAMM"
        },
        {
          "name": "up",
          "type": "bool",
          "internalType": "bool"
        },
        {
          "name": "usdcAmount",
          "type": "uint256",
          "internalType": "uint256"
        },
        {
          "name": "minAmountOut",
          "type": "uint256",
          "internalType": "uint256"
        }
      ],
      "outputs": [],
      "stateMutability": "nonpayable"
    },
    {
      "type": "function",
      "name": "exitMarket",
      "inputs": [
        {
          "name": "liquidityEngine",
          "type": "address",
          "internalType": "contract ILiquidityEngine"
        },
        {
          "name": "amm",
          "type": "address",
          "internalType": "contract IAMM"
        },
        {
          "name": "burnAmount",
          "type": "uint256",
          "internalType": "uint256"
        },
        {
          "name": "up",
          "type": "bool",
          "internalType": "bool"
        }
      ],
      "outputs": [],
      "stateMutability": "nonpayable"
    },
    {
      "type": "error",
      "name": "BurnFailed",
      "inputs": []
    },
    {
      "type": "error",
      "name": "InsufficientUSDC",
      "inputs": []
    },
    {
      "type": "error",
      "name": "InvalidAmount",
      "inputs": []
    },
    {
      "type": "error",
      "name": "SwapFailed",
      "inputs": []
    }
  ],
  "bytecode": {
    "object": "0x6080604052348015600e575f5ffd5b50610b2d8061001c5f395ff3fe60806040526004361061002b575f3560e01c806326bbc30014610036578063a57612ac14610057575f5ffd5b3661003257005b5f5ffd5b348015610041575f5ffd5b50610055610050366004610998565b610076565b005b348015610062575f5ffd5b50610055610071366004610a02565b6105d4565b815f036100af576040517f2c5211c600000000000000000000000000000000000000000000000000000000815260040160405180910390fd5b6040517f70a08231000000000000000000000000000000000000000000000000000000008152306004820152829073ffffffffffffffffffffffffffffffffffffffff8816906370a0823190602401602060405180830381865afa158015610119573d5f5f3e3d5ffd5b505050506040513d601f19601f8201168201806040525081019061013d9190610a52565b1015610175576040517ffe7e4c3500000000000000000000000000000000000000000000000000000000815260040160405180910390fd5b6040517f095ea7b300000000000000000000000000000000000000000000000000000000815273ffffffffffffffffffffffffffffffffffffffff86811660048301526024820184905287169063095ea7b3906044016020604051808303815f875af11580156101e7573d5f5f3e3d5ffd5b505050506040513d601f19601f8201168201806040525081019061020b9190610a69565b506040517f97304ced0000000000000000000000000000000000000000000000000000000081526004810183905273ffffffffffffffffffffffffffffffffffffffff8616906397304ced906024015f604051808303815f87803b158015610271575f5ffd5b505af1158015610283573d5f5f3e3d5ffd5b505050505f60028364e8d4a5100061029b9190610a8b565b6102a59190610acd565b9050831561043e575f8573ffffffffffffffffffffffffffffffffffffffff1663c54db5e46040518163ffffffff1660e01b8152600401602060405180830381865afa1580156102f7573d5f5f3e3d5ffd5b505050506040513d601f19601f8201168201806040525081019061031b9190610b05565b6040517f095ea7b300000000000000000000000000000000000000000000000000000000815273ffffffffffffffffffffffffffffffffffffffff8881166004830152602482018590529192509082169063095ea7b3906044016020604051808303815f875af1158015610391573d5f5f3e3d5ffd5b505050506040513d601f19601f820116820180604052508101906103b59190610a69565b506040517f0d34964c000000000000000000000000000000000000000000000000000000008152600481018390526024810184905273ffffffffffffffffffffffffffffffffffffffff871690630d34964c906044015f604051808303815f87803b158015610422575f5ffd5b505af1158015610434573d5f5f3e3d5ffd5b50505050506105cb565b5f8573ffffffffffffffffffffffffffffffffffffffff166361a548e36040518163ffffffff1660e01b8152600401602060405180830381865afa158015610488573d5f5f3e3d5ffd5b505050506040513d601f19601f820116820180604052508101906104ac9190610b05565b6040517f095ea7b300000000000000000000000000000000000000000000000000000000815273ffffffffffffffffffffffffffffffffffffffff8881166004830152602482018590529192509082169063095ea7b3906044016020604051808303815f875af1158015610522573d5f5f3e3d5ffd5b505050506040513d601f19601f820116820180604052508101906105469190610a69565b506040517f51ed1bcb000000000000000000000000000000000000000000000000000000008152600481018390526024810184905273ffffffffffffffffffffffffffffffffffffffff8716906351ed1bcb906044015f604051808303815f87803b1580156105b3575f5ffd5b505af11580156105c5573d5f5f3e3d5ffd5b50505050505b50505050505050565b815f0361060d576040517f2c5211c600000000000000000000000000000000000000000000000000000000815260040160405180910390fd5b5f81610685578373ffffffffffffffffffffffffffffffffffffffff1663c54db5e46040518163ffffffff1660e01b8152600401602060405180830381865afa15801561065c573d5f5f3e3d5ffd5b505050506040513d601f19601f820116820180604052508101906106809190610b05565b6106f2565b8373ffffffffffffffffffffffffffffffffffffffff166361a548e36040518163ffffffff1660e01b8152600401602060405180830381865afa1580156106ce573d5f5f3e3d5ffd5b505050506040513d601f19601f820116820180604052508101906106f29190610b05565b6040517f70a08231000000000000000000000000000000000000000000000000000000008152306004820152909150839073ffffffffffffffffffffffffffffffffffffffff8316906370a0823190602401602060405180830381865afa15801561075f573d5f5f3e3d5ffd5b505050506040513d601f19601f820116820180604052508101906107839190610a52565b10156107bb576040517f2c5211c600000000000000000000000000000000000000000000000000000000815260040160405180910390fd5b6040517f095ea7b300000000000000000000000000000000000000000000000000000000815273ffffffffffffffffffffffffffffffffffffffff86811660048301526024820185905282169063095ea7b3906044016020604051808303815f875af115801561082d573d5f5f3e3d5ffd5b505050506040513d601f19601f820116820180604052508101906108519190610a69565b5081156108de576040517f8e81c64d000000000000000000000000000000000000000000000000000000008152600481018490525f602482015273ffffffffffffffffffffffffffffffffffffffff861690638e81c64d906044015f604051808303815f87803b1580156108c3575f5ffd5b505af11580156108d5573d5f5f3e3d5ffd5b50505050610960565b6040517f8e81c64d0000000000000000000000000000000000000000000000000000000081525f60048201526024810184905273ffffffffffffffffffffffffffffffffffffffff861690638e81c64d906044015f604051808303815f87803b158015610949575f5ffd5b505af115801561095b573d5f5f3e3d5ffd5b505050505b5050505050565b73ffffffffffffffffffffffffffffffffffffffff81168114610988575f5ffd5b50565b8015158114610988575f5ffd5b5f5f5f5f5f5f60c087890312156109ad575f5ffd5b86356109b881610967565b955060208701356109c881610967565b945060408701356109d881610967565b935060608701356109e88161098b565b9598949750929560808101359460a0909101359350915050565b5f5f5f5f60808587031215610a15575f5ffd5b8435610a2081610967565b93506020850135610a3081610967565b9250604085013591506060850135610a478161098b565b939692955090935050565b5f60208284031215610a62575f5ffd5b5051919050565b5f60208284031215610a79575f5ffd5b8151610a848161098b565b9392505050565b8082028115828204841417610ac7577f4e487b71000000000000000000000000000000000000000000000000000000005f52601160045260245ffd5b92915050565b5f82610b00577f4e487b71000000000000000000000000000000000000000000000000000000005f52601260045260245ffd5b500490565b5f60208284031215610b15575f5ffd5b8151610a848161096756fea164736f6c634300081d000a",
    "linkReferences": {}
  },
  "methodIdentifiers": {
    "enterMarket(address,address,address,bool,uint256,uint256)": "26bbc300",
    "exitMarket(address,address,uint256,bool)": "a57612ac"
  },
  "id": 28
}